{
  "_format": "hh-sol-artifact-1",
  "contractName": "DutchAuction",
  "sourceName": "contracts/DutchAuction.sol",
  "abi": [
    {
      "inputs": [
        {
          "internalType": "uint256",
          "name": "_reservePrice",
          "type": "uint256"
        },
        {
          "internalType": "address",
          "name": "_judgeAddress",
          "type": "address"
        },
        {
          "internalType": "uint256",
          "name": "_numBlocksAuctionOpen",
          "type": "uint256"
        },
        {
          "internalType": "uint256",
          "name": "_offerPriceDecrement",
          "type": "uint256"
        }
      ],
      "stateMutability": "nonpayable",
      "type": "constructor"
    },
    {
      "inputs": [],
      "name": "bid",
      "outputs": [
        {
          "internalType": "address",
          "name": "",
          "type": "address"
        }
      ],
      "stateMutability": "payable",
      "type": "function"
    },
    {
      "inputs": [],
      "name": "currState",
      "outputs": [
        {
          "internalType": "enum DutchAuction.State",
          "name": "",
          "type": "uint8"
        }
      ],
      "stateMutability": "view",
      "type": "function"
    },
    {
      "inputs": [],
      "name": "finalize",
      "outputs": [],
      "stateMutability": "nonpayable",
      "type": "function"
    },
    {
      "inputs": [],
      "name": "nop",
      "outputs": [
        {
          "internalType": "bool",
          "name": "",
          "type": "bool"
        }
      ],
      "stateMutability": "nonpayable",
      "type": "function"
    },
    {
      "inputs": [
        {
          "internalType": "uint256",
          "name": "refundAmount",
          "type": "uint256"
        }
      ],
      "name": "refund",
      "outputs": [],
      "stateMutability": "nonpayable",
      "type": "function"
    }
  ],
  "bytecode": "0x60806040523480156200001157600080fd5b506040516200127238038062001272833981810160405281019062000037919062000127565b33600060016101000a81548173ffffffffffffffffffffffffffffffffffffffff021916908373ffffffffffffffffffffffffffffffffffffffff1602179055508082620000869190620001f0565b8462000093919062000193565b60018190555082600260006101000a81548173ffffffffffffffffffffffffffffffffffffffff021916908373ffffffffffffffffffffffffffffffffffffffff16021790555080600381905550816004819055504360058190555050505050620002f2565b6000815190506200010a81620002be565b92915050565b6000815190506200012181620002d8565b92915050565b600080600080608085870312156200013e57600080fd5b60006200014e8782880162000110565b94505060206200016187828801620000f9565b9350506040620001748782880162000110565b9250506060620001878782880162000110565b91505092959194509250565b6000620001a08262000285565b9150620001ad8362000285565b9250827fffffffffffffffffffffffffffffffffffffffffffffffffffffffffffffffff03821115620001e557620001e46200028f565b5b828201905092915050565b6000620001fd8262000285565b91506200020a8362000285565b9250817fffffffffffffffffffffffffffffffffffffffffffffffffffffffffffffffff04831182151516156200024657620002456200028f565b5b828202905092915050565b60006200025e8262000265565b9050919050565b600073ffffffffffffffffffffffffffffffffffffffff82169050919050565b6000819050919050565b7f4e487b7100000000000000000000000000000000000000000000000000000000600052601160045260246000fd5b620002c98162000251565b8114620002d557600080fd5b50565b620002e38162000285565b8114620002ef57600080fd5b50565b610f7080620003026000396000f3fe60806040526004361061004a5760003560e01c80631998aeef1461004f578063278ecde11461006d5780632e9c58bb146100965780634bb278f3146100c1578063afe01043146100d8575b600080fd5b610057610103565b6040516100649190610ad9565b60405180910390f35b34801561007957600080fd5b50610094600480360381019061008f919061098e565b6104ec565b005b3480156100a257600080fd5b506100ab6106fa565b6040516100b89190610af4565b60405180910390f35b3480156100cd57600080fd5b506100d6610703565b005b3480156100e457600080fd5b506100ed610968565b6040516100fa9190610b0f565b60405180910390f35b60006004546005546101159190610c1b565b4310610156576040517f08c379a000000000000000000000000000000000000000000000000000000000815260040161014d90610b8a565b60405180910390fd5b6000600554436101669190610ccb565b6003546101739190610c71565b6001546101809190610ccb565b9050803410156101c5576040517f08c379a00000000000000000000000000000000000000000000000000000000081526004016101bc90610b2a565b60405180910390fd5b600060019054906101000a900473ffffffffffffffffffffffffffffffffffffffff1673ffffffffffffffffffffffffffffffffffffffff163373ffffffffffffffffffffffffffffffffffffffff161415610256576040517f08c379a000000000000000000000000000000000000000000000000000000000815260040161024d90610baa565b60405180910390fd5b60006002811115610290577f4e487b7100000000000000000000000000000000000000000000000000000000600052602160045260246000fd5b60008054906101000a900460ff1660028111156102d6577f4e487b7100000000000000000000000000000000000000000000000000000000600052602160045260246000fd5b14610316576040517f08c379a000000000000000000000000000000000000000000000000000000000815260040161030d90610b6a565b60405180910390fd5b600073ffffffffffffffffffffffffffffffffffffffff16600260009054906101000a900473ffffffffffffffffffffffffffffffffffffffff1673ffffffffffffffffffffffffffffffffffffffff16146104095733600760006101000a81548173ffffffffffffffffffffffffffffffffffffffff021916908373ffffffffffffffffffffffffffffffffffffffff1602179055503460088190555060016000806101000a81548160ff021916908360028111156103ff577f4e487b7100000000000000000000000000000000000000000000000000000000600052602160045260246000fd5b02179055506104c3565b600060019054906101000a900473ffffffffffffffffffffffffffffffffffffffff1673ffffffffffffffffffffffffffffffffffffffff166108fc349081150290604051600060405180830381858888f19350505050158015610471573d6000803e3d6000fd5b5060026000806101000a81548160ff021916908360028111156104bd577f4e487b7100000000000000000000000000000000000000000000000000000000600052602160045260246000fd5b02179055505b600760009054906101000a900473ffffffffffffffffffffffffffffffffffffffff1691505090565b600260009054906101000a900473ffffffffffffffffffffffffffffffffffffffff1673ffffffffffffffffffffffffffffffffffffffff163373ffffffffffffffffffffffffffffffffffffffff161461057c576040517f08c379a000000000000000000000000000000000000000000000000000000000815260040161057390610bea565b60405180910390fd5b600160028111156105b6577f4e487b7100000000000000000000000000000000000000000000000000000000600052602160045260246000fd5b60008054906101000a900460ff1660028111156105fc577f4e487b7100000000000000000000000000000000000000000000000000000000600052602160045260246000fd5b1461063c576040517f08c379a000000000000000000000000000000000000000000000000000000000815260040161063390610bca565b60405180910390fd5b600760009054906101000a900473ffffffffffffffffffffffffffffffffffffffff1673ffffffffffffffffffffffffffffffffffffffff166108fc6008549081150290604051600060405180830381858888f193505050501580156106a6573d6000803e3d6000fd5b5060026000806101000a81548160ff021916908360028111156106f2577f4e487b7100000000000000000000000000000000000000000000000000000000600052602160045260246000fd5b021790555050565b60006001905090565b600260009054906101000a900473ffffffffffffffffffffffffffffffffffffffff1673ffffffffffffffffffffffffffffffffffffffff163373ffffffffffffffffffffffffffffffffffffffff1614806107ac5750600760009054906101000a900473ffffffffffffffffffffffffffffffffffffffff1673ffffffffffffffffffffffffffffffffffffffff163373ffffffffffffffffffffffffffffffffffffffff16145b6107eb576040517f08c379a00000000000000000000000000000000000000000000000000000000081526004016107e290610b4a565b60405180910390fd5b60016002811115610825577f4e487b7100000000000000000000000000000000000000000000000000000000600052602160045260246000fd5b60008054906101000a900460ff16600281111561086b577f4e487b7100000000000000000000000000000000000000000000000000000000600052602160045260246000fd5b146108ab576040517f08c379a00000000000000000000000000000000000000000000000000000000081526004016108a290610bca565b60405180910390fd5b600060019054906101000a900473ffffffffffffffffffffffffffffffffffffffff1673ffffffffffffffffffffffffffffffffffffffff166108fc6008549081150290604051600060405180830381858888f19350505050158015610915573d6000803e3d6000fd5b5060026000806101000a81548160ff02191690836002811115610961577f4e487b7100000000000000000000000000000000000000000000000000000000600052602160045260246000fd5b0217905550565b60008054906101000a900460ff1681565b60008135905061098881610f23565b92915050565b6000602082840312156109a057600080fd5b60006109ae84828501610979565b91505092915050565b6109c081610cff565b82525050565b6109cf81610d11565b82525050565b6109de81610d5a565b82525050565b60006109f1600e83610c0a565b91506109fc82610dca565b602082019050919050565b6000610a14602383610c0a565b9150610a1f82610df3565b604082019050919050565b6000610a37600c83610c0a565b9150610a4282610e42565b602082019050919050565b6000610a5a601183610c0a565b9150610a6582610e6b565b602082019050919050565b6000610a7d601283610c0a565b9150610a8882610e94565b602082019050919050565b6000610aa0601883610c0a565b9150610aab82610ebd565b602082019050919050565b6000610ac3601683610c0a565b9150610ace82610ee6565b602082019050919050565b6000602082019050610aee60008301846109b7565b92915050565b6000602082019050610b0960008301846109c6565b92915050565b6000602082019050610b2460008301846109d5565b92915050565b60006020820190508181036000830152610b43816109e4565b9050919050565b60006020820190508181036000830152610b6381610a07565b9050919050565b60006020820190508181036000830152610b8381610a2a565b9050919050565b60006020820190508181036000830152610ba381610a4d565b9050919050565b60006020820190508181036000830152610bc381610a70565b9050919050565b60006020820190508181036000830152610be381610a93565b9050919050565b60006020820190508181036000830152610c0381610ab6565b9050919050565b600082825260208201905092915050565b6000610c2682610d50565b9150610c3183610d50565b9250827fffffffffffffffffffffffffffffffffffffffffffffffffffffffffffffffff03821115610c6657610c65610d6c565b5b828201905092915050565b6000610c7c82610d50565b9150610c8783610d50565b9250817fffffffffffffffffffffffffffffffffffffffffffffffffffffffffffffffff0483118215151615610cc057610cbf610d6c565b5b828202905092915050565b6000610cd682610d50565b9150610ce183610d50565b925082821015610cf457610cf3610d6c565b5b828203905092915050565b6000610d0a82610d30565b9050919050565b60008115159050919050565b6000819050610d2b82610f0f565b919050565b600073ffffffffffffffffffffffffffffffffffffffff82169050919050565b6000819050919050565b6000610d6582610d1d565b9050919050565b7f4e487b7100000000000000000000000000000000000000000000000000000000600052601160045260246000fd5b7f4e487b7100000000000000000000000000000000000000000000000000000000600052602160045260246000fd5b7f507269636520746f6f206c6f7721000000000000000000000000000000000000600082015250565b7f4f6e6c79204a7564676520616e642077696e6e65722063616e2066696e616c6960008201527f7a65210000000000000000000000000000000000000000000000000000000000602082015250565b7f416c726561647920706169640000000000000000000000000000000000000000600082015250565b7f41756374696f6e2068617320656e646564000000000000000000000000000000600082015250565b7f4f776e65722063616e206e6f7420626964210000000000000000000000000000600082015250565b7f43616e6e6f7420636f6e6669726d2064656c6976657279210000000000000000600082015250565b7f4f6e6c79206a756467652063616e20726566756e642100000000000000000000600082015250565b60038110610f2057610f1f610d9b565b5b50565b610f2c81610d50565b8114610f3757600080fd5b5056fea2646970667358221220397bc8258957f8f17035886dae5c0e4f0ea4fc6c5e2d324ff24a080d646880fb64736f6c63430008040033",
  "linkReferences": {},
  "deployedLinkReferences": {}
}